:04000000FEEF17F008
:100600000000076A000E066E01500624D96EDA6AF1
:10061000DF50836E06C002F0010E036E022A13EF54
:1006200003F0D8900336022E11EF03F080500F0B29
:100630000310806E010E056EF40E046E0406D8A041
:100640000506042806E10528D8A429EF03F02BEFBE
:1006500003F01EEF03F0064A072A07BE39EF03F046
:10066000075009E1040E065CD8A039EF03F03BEF18
:1006700003F004EF03F0120020EE1AF010EE0CF07D
:10068000090EDBCFE3FFE806FCE2956A9250F00B1F
:10069000926E8050F00B806E0CC016F00DC017F0FB
:1006A0000EC018F00FC019F0160E016E01EC03F029
:1006B0004CEF03F0FEEF17F0DE0EF66E060EF76E4F
:1006C000000EF86E00EE1AF010EE0AF00900F5CFF9
:1006D000EEFFE550E150FAE100013CEF03F0E721C5
:0806E000CB6B2D6EEE23EF2F12
:042FFC005CEF03F093
:00000001FF
