:0400000007EF00F016
:10000800018202ED02F06EEF02F02150D96EDA6A39
:10001800DF50236E2350246E256A3A50391009E1C7
:10002800110E375C270E3858D8B01DEF00F01FEFBF
:1000380000F08DEF00F024502510D8A426EF00F032
:1000480028EF00F03AEF00F08150FC0B816E8150F0
:100058003F0B816ECE0E1F6E200E0EEC03F0CF0EFE
:100068001F6E200E0EEC03F09DEF00F02404251007
:10007800D8A441EF00F043EF00F055EF00F08150B5
:100088000309816E81503F0B816ECE0E1F6E3C0EB0
:100098000EEC03F0CF0E1F6E200E0EEC03F09DEF5A
:1000A80000F0020E24182510D8A45DEF00F05FEFD1
:1000B80000F071EF00F08150FC0B816E8150C00997
:1000C800816ECE0E1F6E200E0EEC03F0CF0E1F6E4B
:1000D8003E0E0EEC03F09DEF00F0030E24182510E1
:1000E800D8A479EF00F07BEF00F09DEF00F081508D
:1000F800C009816E81500309816ECE0E1F6E3C0EC1
:100108000EEC03F0CF0E1F6E3E0E0EEC03F09DEFCB
:1001180000F08150FC0B816E81503F0B816ECE0E3A
:100128001F6E200E0EEC03F0CF0E1F6E200E0EEC8D
:1001380003F01200366A340E256E2F0E266E360E28
:10014800276E84EC01F03B503C10D8A4AEEF00F0D1
:10015800B0EF00F016EF01F0100E34183510D8A4E7
:10016800B8EF00F0BAEF00F0C2EF00F02F0E216EEA
:1001780036C022F0E0EC02F030EF01F0200E341827
:100188003510D8A4CAEF00F0CCEF00F0F2EF00F081
:100198002F0E226E36C023F0C5EC02F0080E2F1881
:1001A800D8A4D9EF00F0DBEF00F030EF01F03C6AA3
:1001B800010E3B6E39EC03F0E50E1F6E2F0E206E1C
:1001C800800E216ECCEC01F0D50E1F6E2F0E206E26
:1001D800C00E216ECCEC01F030EF01F0300E341877
:1001E8003510D8A4FAEF00F0FCEF00F004EF01F0AE
:1001F8002F0E226E36C023F001EC03F030EF01F031
:10020800500E34183510D8A40CEF01F00EEF01F0A1
:1002180030EF01F02F0E216E36C022F009EC00F00D
:1002280030EF01F0200E34183510D8A41EEF01F07D
:1002380020EF01F030EF01F0080E2F18D8B427EFA7
:1002480001F029EF01F030EF01F03C6A000E3B6E3F
:1002580039EC03F02FEC02F01200956A9450F80B79
:10026800946E8290C30E1F6ECD0EE82EFED71F2E01
:10027800FCD70000000E1D6E330EA8EC02F01B0E1A
:100288001F6E9E0EE82EFED71F2EFCD700D0000E44
:100298001D6E330EA8EC02F0A60EE82EFED700D095
:1002A800000E1D6E330EA8EC02F000D000D0000046
:1002B800000E1D6E020EA8EC02F0A60EE82EFED768
:1002C80000D0000E1D6E380EA8EC02F0A60EE82E27
:1002D800FED700D0000E1D6E010EA8EC02F0040E31
:1002E8001F6E3E0EE82EFED71F2EFCD7000E1D6E89
:1002F8000C0EA8EC02F0A60EE82EFED700D01200D5
:1003080060AE89EF01F08BEF01F0C7EF01F08BECE5
:1003180002F02550D96EDA6A1DC0DEFF1EC0DDFF6F
:100328002750D96EDA6A65CFDFFF660E2B6E0F0E87
:100338002C6E2E6A000E2D6EB0EF01F02D502B247E
:10034800D96E2E502C20DA6E26502D24E16EE26AEA
:10035800DFCFE7FF2D4A2E2A2750D96EDA6ADF5001
:10036800286E296A28502D5C2E50800A2A6E295042
:10037800800A2A58D8A0C3EF01F0C5EF01F0A2EF18
:1003880001F0609EA4902750D96EDA6ADF6A1200E5
:10039800000E1D6E2150A8EC02F0E9EF01F0010EED
:1003A8001D6E1FC0F6FF20C0F7FFF86A050EF76440
:1003B80003D00800F55005D0F6CFE9FFF7CFEAFFE4
:1003C800EF50A8EC02F01F4A202A1FC0F6FF20C0F9
:1003D800F7FFF86A050EF76403D00800F55005D05A
:1003E800F6CFE9FFF7CFEAFFEF500009D8A4FFEFF7
:1003F80001F001EF02F0D3EF01F012000600F2A4C1
:1004080008EF02F00AEF02F02DEF02F0090ED624F1
:10041800D66E000ED720D76E010E3726000E382272
:1004280039223A22210E371809E14E0E38183910B0
:100438003A10D8A422EF02F024EF02F02CEF02F0D9
:10044800000E376E000E386E000E396E000E3A6ED2
:10045800F29401921100F90E1F6E2F0E206E800E7D
:10046800216ECCEC01F0FC0E1F6E2F0E206E840E58
:10047800216ECCEC01F0F50E1F6E2F0E206E880E4B
:10048800216ECCEC01F0F10E1F6E2F0E206E8D0E3A
:10049800216ECCEC01F01200939493861F0E6F1618
:1004A8006F8E800E6E18D8A45CEF02F05EEF02F03B
:1004B80055EF02F0776AE10E706E1B0E716E030E37
:1004C800726E0D01D46B1F0E6F166F50606A608AD2
:1004D800608C1200E60EF66E050EF76E000EF86ED2
:1004E80000EE02F010EE1BF00900F5CFEEFFE5502C
:1004F800E150FAE13C6A3B6A3A6A396A386A376A13
:1005080001900192000EF86E000125EF03F0615092
:100518001F6E206AD8901F362036D8901F36203696
:10052800D8901F3620366238E842070B070B216E39
:10053800226A1F502110236E20502210246E23C0DF
:100548001DF024C01EF012001E6E1DB0AEEF02F0AA
:10055800B1EF02F08282B2EF02F082921EC083FFF6
:1005680082848294958E828082928284829483BED1
:10057800C0EF02F0C2EF02F0B9EF02F08290959E50
:1005880012002250D96EDA6A090EDF60CEEF02F04F
:10059800D0EF02F0DFEF02F02250D96EDA6ADF50B6
:1005A800030DF350020F246E24C01FF0206AC40EFE
:1005B800216ECCEC01F01200C00E1F6E2150D96ED6
:1005C800DA6ADF500EEC03F0C10E1F6E2150D96EAF
:1005D800DA6A010ED926DF500EEC03F012004F4EF6
:1005E80000474E0047310047320047330047340088
:0905F800473500477200435F0023
:1006020022502324D96EDA6ADF6A22C01FF0206AE0
:10061200C80E216ECCEC01F01200206E000E1D6E91
:100622001F50A8EC02F0010E1D6E2050A8EC02F043
:10063200120031EC01F050EC02F03FEC03F0F28CCE
:10064200F28E2FEC03F012001AEC03F02FEC02F002
:100652009EEC00F029EF03F007EF00F0D58CD59A5D
:10066200D58ED586D76A060ED66EF294F28A12001D
:10067200000E1D6E010EA8EC02F01200080E936E21
:04068200816A120077
:102FD4000056656869636C652044616D616765646A
:102FE40000436F6C6C6973696F6E202100494E4415
:0C2FF4000052504D0053500047520000A6
:00000001FF
