:04000000FEEF17F008
:10060000000020EE25F0040EDE6AE806FDE2040E8E
:10061000B6EC05F001C008F002C009F00A6A0B6AE6
:10062000700E0C6E170E0D6E000E0E6E000E0F6E1D
:1006300081EC05F008C014F009C015F00AC016F0EE
:100640000BC017F0FF0E186E030E196E000E1A6E17
:10065000000E1B6EBEEC04F014C022F015C023F097
:10066000316A000E306E22C02EF023C02FF02E50C3
:100670002F10D8A43EEF03F040EF03F065EF03F036
:10068000300E256E304A312AA3EF03F03050250F8B
:10069000D96EDA6A2EC001F02FC002F0046A0A0E89
:1006A000036E12EC04F00150300FDF6E304A312A35
:1006B0002EC001F02FC002F0046A0A0E036EB2ECE5
:1006C00003F001C02EF002C02FF02E502F10D8A43E
:1006D0006CEF03F06EEF03F046EF03F02B6A000EB1
:1006E0002A6EFF0E30242C6EFF0E31202D6E94EFFB
:1006F00003F02A50250FD96EDA6ADF50246E2C5091
:10070000250FD96EDA6A2A50250FE16EE26ADFCF33
:10071000E7FF2C50250FD96EDA6A24C0DFFF2A4A82
:100720002B2A2C06D8A02D062C502A5C2B50800A90
:10073000216E2D50800A2158D8A0A1EF03F0A3EF1D
:1007400003F079EF03F03050250FD96EDA6ADF6AD3
:10075000066A300E056E250E076E3028086E4AECCC
:1007600005F01200066A04BEBAEF03F0B8EF03F01A
:10077000C0EF03F0036C041ED8B0042A010E066E0D
:1007800002BEC7EF03F0C5EF03F0CDEF03F0016C3D
:10079000021ED8B0022A010E061A086A000E076E61
:1007A00003500410D8B4D7EF03F0D9EF03F001EFF2
:1007B00004F0010E056EE1EF03F0D8900336043625
:1007C000052A04AEE6EF03F0E8EF03F0DDEF03F0F7
:1007D000D890073608360350015C04500258D8A060
:1007E000F4EF03F0F6EF03F0FBEF03F00350015ECC
:1007F0000450025A0780D89004320332052EE8EFE5
:1008000003F00650D8B407EF04F009EF04F00DEF41
:1008100004F0076C081ED8B0082A07C001F008C011
:1008200002F01200066A02BE1AEF04F018EF04F09C
:1008300020EF04F0016C021ED8B0022A010E066EF1
:1008400004BE27EF04F025EF04F02BEF04F0036C57
:10085000041ED8B0042A03500410D8B432EF04F0B8
:1008600034EF04F058EF04F0010E056E3CEF04F095
:10087000D89003360436052A04AE41EF04F043EF66
:1008800004F038EF04F00350015C04500258D8A083
:100890004CEF04F04EEF04F052EF04F00350015E11
:1008A0000450025AD89004320332052E43EF04F06C
:1008B0000650D8B45EEF04F060EF04F064EF04F08B
:1008C000016C021ED8B0022A01C001F002C002F081
:1008D0001200010E10EC05F0106E1050376E386AE1
:1008E0000F0E37183810D8B478EF04F07AEF04F010
:1008F000B4EF04F00E0E37183810D8A482EF04F0CD
:1009000084EF04F089EF04F03B6A010E3A6EB4EF15
:1009100004F00D0E37183810D8A491EF04F093EFBF
:1009200004F098EF04F03B6A020E3A6EB4EF04F064
:100930000B0E37183810D8A4A0EF04F0A2EF04F083
:10094000A7EF04F03B6A030E3A6EB4EF04F0070E13
:1009500037183810D8A4AFEF04F0B1EF04F0B4EFBB
:1009600004F03B6A000E3A6E066A500E056E3A0EAF
:10097000076E010E086E4AEC05F01200000E1C6EA8
:10098000000E1D6E000E1E6E000E1F6E1850191008
:100990001A101B10D8B4CFEF04F0D1EF04F007EF1A
:1009A00005F0010E206EDBEF04F0D89018361936F2
:1009B0001A361B36202A1BAEE0EF04F0E2EF04F0FB
:1009C000D5EF04F0D8901C361D361E361F36185051
:1009D000145C195015581A5016581B501758D8A0A7
:1009E000F4EF04F0F6EF04F0FFEF04F01850145E9B
:1009F0001950155A1A50165A1B50175A1C80D89065
:100A00001B321A3219321832202EE2EF04F01CC0C9
:100A100014F01DC015F01EC016F01FC017F0120014
:100A2000016E0104D8A417EF05F019EF05F03EEFB1
:100A300005F082500F0B0F0AD8B421EF05F023EF19
:100A400005F030EF05F03C50D8B429EF05F02BEF5E
:100A500005F030EF05F03C6A82500F0B49EF05F0CE
:100A600082500F0B0F0AD8A438EF05F03AEF05F0CB
:100A700048EF05F0010E3C6E48EF05F00150D8A498
:100A800044EF05F046EF05F048EF05F02CEF05F0D8
:100A9000FF0E12000F01436B446B05C001F006C04E
:100AA00002F0F7EC05F008C045FF460E0C6E0F0E85
:100AB0000D6E0F6A000E0E6E6CEF05F007500E24DF
:100AC000D96EDA6A0E500C24E16E0F500D20E26EE2
:100AD000DFCFE7FF0E4A0F2A0850096E0A6A095055
:100AE0000E5C0F50800A0B6E0A50800A0B58D8A07B
:100AF0007CEF05F07EEF05F05EEF05F00F0140871B
:100B00001200000E106E000E116E000E126E000E1E
:100B1000136E08A08EEF05F090EF05F098EF05F04A
:100B20000C5010260D5011220E5012220F5013227D
:100B3000D8900C360D360E360F36D8900B320A325E
:100B400009320832085009100A100B10D8A4ABEF74
:100B500005F0ADEF05F089EF05F010C008F011C009
:100B600009F012C00AF013C00BF01200076E07C0A4
:100B700003F0D8900336D8900336C250C30B03104D
:100B8000C26EC282C2B2C7EF05F0C9EF05F0C2EF74
:100B900005F0C350C4CF03F0046A03C004F0036A35
:100BA0000310056E0450066E05C001F006C002F089
:100BB0001200939493861F0E6F166F8E800E6E1820
:100BC000D8A4E5EF05F0E7EF05F0DEEF05F0776A72
:100BD000E10E706E1B0E716E030E726E0D01D46B02
:100BE0001F0E6F166F50606A608A608C120001C021
:100BF00003F0070E0316050E046ED8900336042E7C
:100C0000FDEF05F003500F01426F01C003F002C079
:100C100004F0D89004320332D89004320332D890D2
:100C2000043203320350416F1200000EF66E300E94
:100C3000F76E000EF86E0900F5CF3CF000EE32F0D2
:100C40000A0EEE6AE806FDE1000135EF06F0C08EFF
:100C5000C09AC088C096C090C082C094C292C19A07
:100C6000C198C46AC36AC28012003FEC06F001EC6E
:100C700003F069EC04F037EF06F0FEEF17F027EC15
:100C800006F051EC06F048EC06F0D9EC05F0120045
:100C900093909392939C939E81908192819481965C
:0A0CA000120094500F09946E120028
:052FFC0015EF06F001D5
:00000001FF
