:0400000007EF00F016
:1000080001828AED0DF05DEF0DF0000E026E010E1B
:100018006CEC0EF01F6A206A216A010E226E1E6ABD
:10002800000E166E000E176E000E186E000E196E7A
:10003800BE0E046E2F0E056E830E066E62EC0CF07B
:10004800010E21EC0CF01D6E1D04D8A42EEF00F05B
:1000580030EF00F071EF00F02204D8A436EF00F082
:1000680038EF00F045EF00F0212A3C0E2118D8A403
:1000780040EF00F042EF00F04CEF01F0216A4CEF46
:1000880001F0020E2218D8A44CEF00F04EEF00F059
:100098005BEF00F0202A3C0E2018D8A456EF00F0A1
:1000A80058EF00F04CEF01F0206A4CEF01F0030E1E
:1000B8002218D8A462EF00F064EF00F04CEF01F0D2
:1000C8001F2A180E1F18D8A46CEF00F06EEF00F06E
:1000D8004CEF01F01F6A4CEF01F0020E1D18D8A476
:1000E80078EF00F07AEF00F0BBEF00F02204D8A41C
:1000F80080EF00F082EF00F08FEF00F0210621285A
:10010800D8A489EF00F08BEF00F04CEF01F03B0E24
:10011800216E4CEF01F0020E2218D8A496EF00F0E1
:1001280098EF00F0A5EF00F020062028D8A49FEF54
:1001380000F0A1EF00F04CEF01F03B0E206E4CEF09
:1001480001F0030E2218D8A4ACEF00F0AEEF00F0D7
:100158004CEF01F01F061F28D8A4B5EF00F0B7EF49
:1001680000F04CEF01F0170E1F6E4CEF01F0040E7B
:100178001D18D8A4C2EF00F0C4EF00F0D2EF00F0D1
:10018800222A040E2218D8A4CCEF00F0CEEF00F0FB
:100198004CEF01F0010E226E4CEF01F00B0E1D1812
:1001A800D8A4D9EF00F0DBEF00F04CEF01F0000E1F
:1001B800026E010E6CEC0EF01FC00AF00B6A0D6A9D
:1001C8000A0E0C6EE2EC0AF00AC012F00BC013F033
:1001D8001FC002F0036A056A0A0E046EC9EC09F032
:1001E8000238F00B12101A6E20C00AF00B6A0D6A62
:1001F8000A0E0C6EE2EC0AF00AC012F00BC013F003
:1002080020C002F0036A056A0A0E046EC9EC09F000
:100218000238F00B12101B6E21C00AF00B6A0D6A2F
:100228000A0E0C6EE2EC0AF00AC012F00BC013F0D2
:1002380021C002F0036A056A0A0E046EC9EC09F0CF
:100248000238F00B12101C6E1AC003F0020EC3EC39
:100258000EF01BC003F0010EC3EC0EF01CC003F03F
:10026800000EC3EC0EF0710E046E2F0E056E830E99
:10027800066E62EC0CF0330E136EBB0E126EE00EBF
:10028800E82EFED7122EFCD7132EFAD72AEF02F04B
:1002980016C012F017C013F018C014F019C015F0EA
:1002A800162A000E172218221922155014100BE1D5
:1002B800F40E125C010E1358D8A065EF01F067EF39
:1002C80001F07AEF01F0000E166E000E176E000EA8
:1002D800186E000E196E1E50D8B475EF01F078EF45
:1002E80001F0010E79EF01F0000E1E6E030E2218C8
:1002F800D8A481EF01F083EF01F095EF01F01E50D3
:10030800D8B489EF01F08BEF01F095EF01F0D90E29
:10031800046E2F0E056EC30E066E62EC0CF0B1EF84
:1003280001F0C30E106E1FC002F0036A056A0A0EC0
:10033800046EC9EC09F00250300FEDEC0EF0C40E5B
:10034800106E1FC00AF00B6A0D6A0A0E0C6EE2EC02
:100358000AF00A50300FEDEC0EF0C50E106E3A0E92
:10036800EDEC0EF0020E2218D8A4BDEF01F0BFEF9D
:1003780001F0D1EF01F01E50D8B4C5EF01F0C7EF7E
:1003880001F0D1EF01F0D90E046E2F0E056EC60EE6
:10039800066E62EC0CF0EDEF01F0C60E106E20C098
:1003A80002F0036A056A0A0E046EC9EC09F00250ED
:1003B800300FEDEC0EF0C70E106E20C00AF00B6A7D
:1003C8000D6A0A0E0C6EE2EC0AF00A50300FEDECE2
:1003D8000EF0C80E106E3A0EEDEC0EF02204D8A402
:1003E800F8EF01F0FAEF01F00CEF02F01E50D8B46C
:1003F80000EF02F002EF02F00CEF02F0D90E046EEB
:100408002F0E056EC90E066E62EC0CF024EF00F09C
:10041800C90E106E21C002F0036A056A0A0E046E46
:10042800C9EC09F00250300FEDEC0EF0CA0E106E58
:1004380021C00AF00B6A0D6A0A0E0C6EE2EC0AF093
:100448000A50300FEDEC0EF024EF00F0010E516E63
:1004580012001350800B206E13501324276E12AE17
:1004680038EF02F03AEF02F03BEF02F02780275016
:10047800D8B441EF02F043EF02F057EF02F027281B
:10048800D8A449EF02F04BEF02F053EF02F0000E50
:10049800106E000E116E000E126E000E136E128E8C
:1004A800136A5FEF02F0000E106E000E116E000E60
:1004B800126E000E136E1750800B201A1750172457
:1004C800286E16AE6AEF02F06CEF02F06DEF02F0E4
:1004D80028802850D8B473EF02F075EF02F089EF46
:1004E80002F02828D8A47BEF02F07DEF02F085EF18
:1004F80002F0000E146E000E156E000E166E000E41
:10050800176E168E176A91EF02F0000E146E000E29
:10051800156E000E166E000E176E1450151016107C
:100528001710D8A49AEF02F09CEF02F0B4EF02F093
:10053800000E106E000E116E000E126E000E136E7D
:10054800800E12127F0E13122050131210C010F0DA
:1005580011C011F012C012F013C013F0F3EF03F042
:100568002750D8A4BAEF02F0BCEF02F0C6EF02F0B1
:10057800000E106E000E116E000E126E000E136E3D
:10058800F3EF03F0285027C018F0196A185E000E20
:10059800195A7F0E1824216E000E1920226E10C0E1
:1005A8001CF011C01DF012C01EF013C01FF0000E89
:1005B800106E000E116E000E126E000E136E000EFD
:1005C800236E000E246E000E256E000E266E286A1D
:1005D80026EF03F02850D8B4F4EF02F0F6EF02F05B
:1005E8000DEF03F0D8901C361D361E361F36D890F6
:1005F800103611361236133626AE05EF03F007EF24
:1006080003F008EF03F01080D890233624362536FF
:10061800263614501C5C15501D5816501E5817507D
:100628001F58D8A01AEF03F01CEF03F025EF03F0D2
:10063800268C14501C5E15501D5A16501E5A175001
:100648001F5A282A190E28642CEF03F02EEF03F006
:10065800EEEF02F01C501D101E101F10D8B437EF1B
:1006680003F039EF03F051EF03F0238051EF03F06B
:10067800D890103611361236133626AE46EF03F0F0
:1006880048EF03F049EF03F01080D8902336243662
:10069800253626362106D8A0220612AE56EF03F0DC
:1006A80058EF03F03CEF03F0286A26AE5EEF03F044
:1006B80060EF03F084EF03F0FF0E2314186EFF0EB3
:1006C8002414196EFF0E25141A6E7F0E26141B6E45
:1006D800185019101A101B10D8B475EF03F077EFE3
:1006E80003F07BEF03F0010E286E84EF03F010A0F7
:1006F80080EF03F082EF03F084EF03F077EF03F06D
:100708002850D8B48AEF03F08CEF03F0B0EF03F071
:10071800010E1026000E11221222132213A097EFA9
:1007280003F099EF03F0B0EF03F010C018F011C018
:1007380019F012C01AF013C01BF01B341B321A3206
:100748001932183218C010F019C011F01AC012F07E
:100758001BC013F0214A222A22BEBBEF03F022500D
:1007680008E12128D8A0BBEF03F0BDEF03F0C8EFE4
:1007780003F0000E226E2168000E106E000E116E3E
:10078800000E126E000E136E22BED5EF03F022503B
:1007980006E12104D8B0D3EF03F0D5EF03F0E1EF81
:1007A80003F0226A000E216E000E106E000E116E0C
:1007B800000E126E000E136E206A21C027F027A0CB
:1007C800E8EF03F0EAEF03F0EDEF03F0128EEEEF3F
:1007D80003F0129ED8902730136EA8EF02F0120093
:1007E8004F50D8A4FAEF03F0FCEF03F028EF04F021
:1007F8005050D8A402EF04F004EF04F028EF04F0FE
:10080800000E026E010E6CEC0EF0650E046E2F0EDB
:10081800056E830E066E62EC0CF0C70E046E2F0E8A
:10082800056EC40E066E62EC0CF0330E136EBB0E32
:10083800126EE00EE82EFED7122EFCD7132EFAD732
:10084800010E516E64EF05F0010E21EC0CF03C6EC8
:100858003C04D8A432EF04F034EF04F070EF04F055
:100868004F50D8A43AEF04F03CEF04F05AEF04F0EC
:100878005050126E136A4650146E156A050E1426EF
:10088800000E15221250145C1550800A166E135073
:10089800800A1658D8B053EF04F055EF04F0A6EFCD
:1008A80004F0050E4626452AA6EF04F0090E456019
:1008B80060EF04F062EF04F0A6EF04F0050E4626A0
:1008C800452A310E46646BEF04F06DEF04F0A6EF95
:1008D80004F0466AA6EF04F0020E3C18D8A477EF9D
:1008E80004F079EF04F092EF04F04550D8B47FEFAC
:1008F80004F081EF04F092EF04F0050E466087EFF4
:1009080004F089EF04F08DEF04F02D0E466E8FEFA2
:1009180004F0050E465E4506A6EF04F00C0E3C18E2
:10092800D8A499EF04F09BEF04F0A6EF04F0466A10
:10093800456A010E516E000E026E010E6CEC0EF04F
:1009480064EF05F046509EEC0EF0386E46289EEC9B
:100958000EF03D6E4650020F9EEC0EF0396E46507A
:10096800030F9EEC0EF03A6E4650040F9EEC0EF00C
:100978003B6E2B0E106E38C011F0DAEC0BF039C05C
:1009880002F0036A056A0A0E046EC9EC09F0025007
:10099800300F2F6E39C00AF00B6A0D6A0A0E0C6E02
:1009A800E2EC0AF00A50300F306E3A0E316E3AC05F
:1009B80002F0036A056A0A0E046EC9EC09F00250D7
:1009C800300F326E3AC00AF00B6A0D6A0A0E0C6ECE
:1009D800E2EC0AF00A50300F336E3A0E346E3BC028
:1009E80002F0036A056A0A0E046EC9EC09F00250A7
:1009F800300F356E3BC00AF00B6A0D6A0A0E0C6E9A
:100A0800E2EC0AF00A50300F366E376A20EE74F0C6
:100A180010EE17F0130EDBCFE3FFE806FCE2560EEC
:100A2800046E2F0E056E800E066E62EC0CF04550BB
:100A3800020DF350170FD96EDA6ADECF04F0DDCF5E
:100A480005F0C00E066E62EC0CF02B0E046E056A03
:100A5800C30E066E62EC0CF03D50D8A436EF05F0DC
:100A680038EF05F03FEF05F0C70E106E4E0EEDECB7
:100A78000EF05DEF05F0060E3D6045EF05F047EF1F
:100A880005F04FEF05F0C70E106E3D50300FEDEC3E
:100A98000EF05DEF05F0060E3D18D8A456EF05F0F0
:100AA80058EF05F05DEF05F0C70E106E520EEDEC35
:100AB8000EF02F0E046E056AC90E066E62EC0CF07D
:100AC8001200346A4F50D8A46CEF05F06EEF05F0B1
:100AD80080EF05F05050D8A474EF05F076EF05F0DC
:100AE80080EF05F0430E036E2F0E046E00EC0DF040
:100AF800010E516E89EF06F02D0E036E2F0E046E57
:100B080000EC0DF020EE60F010EE12F0130EDBCFCB
:100B1800E3FFE806FCE24F04D8A495EF05F097EF51
:100B280005F09BEF05F050C03BF09CEF05F03B6AE9
:100B3800366A000E356E4F50D8A4A5EF05F0A7EF22
:100B480005F0B2EF05F050503B5CD8A0AEEF05F0D1
:100B5800B0EF05F0B2EF05F07CEF05F03B509EECEE
:100B68000EF0336E3B289EEC0EF03A6E3B50020FAF
:100B78009EEC0EF0376E3B50030F9EEC0EF0386E75
:100B88003B50040F9EEC0EF0396E260E106E33C0EB
:100B980011F0DAEC0BF037C002F0036A056A0A0EAE
:100BA800046EC9EC09F00250300F2A6E37C00AF003
:100BB8000B6A0D6A0A0E0C6EE2EC0AF00A50300F4E
:100BC8002B6E3A0E2C6E38C002F0036A056A0A0EC4
:100BD800046EC9EC09F00250300F2D6E38C00AF0CF
:100BE8000B6A0D6A0A0E0C6EE2EC0AF00A50300F1E
:100BF8002E6E3A0E2F6E39C002F0036A056A0A0E8D
:100C0800046EC9EC09F00250300F306E39C00AF09A
:100C18000B6A0D6A0A0E0C6EE2EC0AF00A50300FED
:100C2800316E326A3450020DF350120FD96EDA6AFF
:100C3800DECF03F0DDCF04F000EC0DF0DA0E036E2A
:100C48002F0E046E00EC0DF0260E036E046A00EC05
:100C58000DF0DA0E036E2F0E046E00EC0DF03A5014
:100C6800D8A439EF06F03BEF06F040EF06F04E0E41
:100C780004EC0FF05AEF06F0060E3A6046EF06F065
:100C880048EF06F04EEF06F03A50300F04EC0FF044
:100C98005AEF06F0060E3A18D8A455EF06F057EFAB
:100CA80006F05AEF06F0520E04EC0FF0D60E036E63
:100CB8002F0E046E00EC0DF02A0E036E046A00EC91
:100CC8000DF0400E036E2F0E046E00EC0DF0342A6A
:100CD800050E3B26310E3B6474EF06F076EF06F006
:100CE80077EF06F03B6A354A362A36BE85EF06F0BE
:100CF800365009E10A0E355CD8A085EF06F087EF7B
:100D080006F09FEF05F07CEF05F0120020EE96F05C
:100D180010EE08F0070EDBCFE3FFE806FCE2010E59
:100D280021EC0CF0106E1004D8A49DEF06F09FEF94
:100D380006F0BDEF06F0030E4760A5EF06F0A7EF3B
:100D480006F0BDEF06F0472A4850D8A4AEEF06F0EB
:100D5800B0EF06F0B4EF06F0010E486EB6EF06F0FD
:100D6800486A492A000E026E010E6CEC0EF02BEF59
:100D780007F0020E1018D8A4C4EF06F0C6EF06F06C
:100D8800E4EF06F04750D8B4CCEF06F0CEEF06F00B
:100D9800E4EF06F047064804D8A4D5EF06F0D7EFED
:100DA80006F0DAEF06F0486ADDEF06F0010E486E4D
:100DB8004906000E026E010E6CEC0EF02BEF07F0E8
:100DC8000B0E1018D8A4EBEF06F0EDEF06F019EFB4
:100DD80007F04750D8A4F3EF06F0F5EF06F0F7EF69
:100DE80006F0020E516E4704D8A4FDEF06F0FFEF9F
:100DF80006F001EF07F0040E516E020E4718D8A452
:100E080008EF07F00AEF07F00CEF07F0030E516E3A
:100E1800030E4718D8A413EF07F015EF07F02BEFD0
:100E280007F0050E516E2BEF07F00C0E1018D8A422
:100E380020EF07F022EF07F02BEF07F0496A486A26
:100E4800476A516A000E026E010E6CEC0EF04850B3
:100E5800D8A431EF07F033EF07F045EF07F0FA0EAB
:100E6800046E2F0E056E800E066E62EC0CF0D90E25
:100E7800046E2F0E056EC00E066E62EC0CF055EF78
:100E880007F0D90E046E2F0E056E800E066E62EC0A
:100E98000CF0FA0E046E2F0E056EC00E066E62EC94
:100EA8000CF04950020DF350080FD96EDA6ADECF04
:100EB80004F0DDCF05F0830E066E62EC0CF04950AD
:100EC800020DF3CF07F0020E07260750080FD96E60
:100ED800DA6ADECF04F0DDCF05F0C30E066E62ECF1
:100EE8000CF012000A6E0A50D8B47DEF07F07FEFBD
:100EF80007F0A1EF07F005BE86EF07F084EF07F0D3
:100F0800A1EF07F002C006F003C007F004C008F024
:100F180005C009F0061E071E081E091E062A000E37
:100F280007220822092206C00CF007C00DF008C0ED
:100F38000EF009C00FF0A9EF07F002C00CF003C0D3
:100F48000DF004C00EF005C00FF00250031004109D
:100F58000510D8A4B2EF07F0B4EF07F0BEEF07F022
:100F6800000E026E000E036E000E046E000E056E7B
:100F78004FEF08F0960E0B6EC8EF07F00B2AD890CB
:100F88000F320E320D320C32000E0C14066E000EAB
:100F98000D14076E000E0E14086EFE0E0F14096E67
:100FA8000650071008100910D8A4DDEF07F0DFEF8E
:100FB80007F0C2EF07F0EDEF07F00B2A010E0C2641
:100FC800000E0D220E220F22D8900F320E320D3253
:100FD8000C32000E0C14066E000E0D14076E000E77
:100FE8000E14086EFF0E0F14096E06500710081035
:100FF8000910D8A402EF08F004EF08F0E1EF07F0B9
:101008000CEF08F00B06D8900C360D360E360F365E
:101018000EBE11EF08F013EF08F01BEF08F0020EF8
:101028000B6019EF08F01BEF08F006EF08F00BB0A3
:1010380020EF08F022EF08F023EF08F00E9ED8907A
:101048000B320BC006F0076A086A096A06C009F085
:10105800086A076A066A06500C1207500D120850F3
:101068000E1209500F120A50D8B43DEF08F03FEFA6
:1010780008F047EF08F005BE46EF08F044EF08F027
:1010880047EF08F00F8E0CC002F00DC003F00EC041
:1010980004F00FC005F01200819A818C818E81B214
:1010A80058EF08F05AEF08F05DEF08F0010ED5EFA1
:1010B80008F081B462EF08F064EF08F067EF08F019
:1010C800040ED5EF08F081B66CEF08F06EEF08F06B
:1010D80071EF08F0070ED5EF08F081B876EF08F049
:1010E80078EF08F07BEF08F00A0ED5EF08F0818A58
:1010F800819C818E81B283EF08F085EF08F088EF3C
:1011080008F0020ED5EF08F081B48DEF08F08FEFEC
:1011180008F092EF08F0050ED5EF08F081B697EFCA
:1011280008F099EF08F09CEF08F0080ED5EF08F0EA
:1011380081B8A1EF08F0A3EF08F0A6EF08F00B0EB6
:10114800D5EF08F0818A818C819E81B2AEEF08F0DC
:10115800B0EF08F0B3EF08F0030ED5EF08F081B454
:10116800B8EF08F0BAEF08F0BDEF08F0060ED5EFBB
:1011780008F081B6C2EF08F0C4EF08F0C7EF08F036
:10118800090ED5EF08F081B8CCEF08F0CEEF08F0E3
:10119800D1EF08F00C0ED5EF08F0818A818C818E92
:1011A800FF0E12002B342C34326E3250D8A4DFEFED
:1011B80008F0E1EF08F0EBEF08F0000E296E000EE2
:1011C8002A6E000E2B6E000E2C6E58EF09F029C007
:1011D8002DF02AC02EF02BC02FF02CC030F0200E9E
:1011E800FBEF08F0D89030322F322E322D32E82E15
:1011F800F6EF08F02D50316E2B8EFF0E2916FF0EDC
:101208002A16FF0E2B16000E2C16960E325E32BED4
:1012180012EF09F010EF09F028EF09F03250800AB8
:10122800970FD8B01AEF09F01CEF09F01EEF09F07C
:10123800E1EF08F0D8902C322B322A322932323E94
:101248001EEF09F040EF09F01F0E32642EEF09F08F
:1012580030EF09F038EF09F0E1EF08F0D8902936BF
:101268002A362B362C3632063250D8A43EEF09F0F7
:1012780040EF09F032EF09F03150D8B446EF09F0E9
:1012880048EF09F050EF09F02C1E2B1E2A1E296C7E
:10129800000E2A222B222C2229C029F02AC02AF04B
:1012A8002BC02BF02CC02CF012002FEC0DF086EC8C
:1012B8000AF08CEC0BF02BEC0FF0AF0E046E056A05
:1012C800C00E066E62EC0CF04E50020DF350880F03
:1012D800D96EDA6ADECF04F0DDCF05F0C90E066EEE
:1012E80062EC0CF0560E046E056ACD0E066E62ECCA
:1012F8000CF0010E21EC0CF0366E0B0E3618D8A44B
:1013080088EF09F08AEF09F093EF09F0000E026EFA
:10131800010E6CEC0EF0010E516EC8EF09F03604A8
:10132800D8A499EF09F09BEF09F0A8EF09F0060E91
:101338004E60A1EF09F0A3EF09F0A8EF09F04E2ADB
:1013480098EC0CF0C8EF09F0020E3618D8A4AFEFED
:1013580009F0B1EF09F0BCEF09F04E50D8B4B7EF7F
:1013680009F0B9EF09F0BCEF09F04E06A4EF09F057
:10137800030E3618D8A4C3EF09F0C5EF09F0C8EF7B
:1013880009F02AEC0EF04E6A1200076A05BED1EF8A
:1013980009F0CFEF09F0D7EF09F0046C051ED8B0BB
:1013A800052A010E076E03BEDEEF09F0DCEF09F037
:1013B800E4EF09F0026C031ED8B0032A010E071AE5
:1013C800096A000E086E04500510D8B4EEEF09F053
:1013D800F0EF09F018EF0AF0010E066EF8EF09F0C9
:1013E800D89004360536062A05AEFDEF09F0FFEF62
:1013F80009F0F4EF09F0D890083609360450025C79
:1014080005500358D8A00BEF0AF00DEF0AF012EFC1
:101418000AF00450025E0550035A0880D89005323D
:101428000432062EFFEF09F00750D8B41EEF0AF079
:1014380020EF0AF024EF0AF0086C091ED8B0092A38
:1014480008C002F009C003F01200B3EC0EF0660EFB
:101458009EEC0EF0BB0AD8A434EF0AF036EF0AF07F
:1014680040EF0AF0650E9EEC0EF04F6E640E9EEC97
:101478000EF0506E42EF0AF04F6A506ABB0E036ED0
:10148800660E4CEC0EF05FEF0AF059EC09F05FEFD6
:101498000AF08AEC06F05FEF0AF0F4EC03F05FEF75
:1014A8000AF065EC05F05FEF0AF0CCEC0CF05FEFAA
:1014B8000AF009EC00F051503E6E3F6A3F50000AB6
:1014C800D8B469EF0AF05FEF0AF03E50000AD8B4CA
:1014D80049EF0AF0010AD8B44DEF0AF0030AD8B46C
:1014E80051EF0AF0010AD8B45DEF0AF0070AD8B440
:1014F80055EF0AF0010AD8B459EF0AF05FEF0AF085
:1015080007EF00F0040E07EC0EF002C034F003C041
:1015180035F0140E146EAE0E156E230E166E410EB7
:10152800176E34C002F035C003F0046A056A000E75
:1015380076EC07F002C010F003C011F004C012F0FE
:1015480005C013F02DEC02F010C029F011C02AF0EC
:1015580012C02BF013C02CF0D6EC08F02950336ED3
:10156800560E106E33C011F0DAEC0BF0140E146E38
:10157800AE0E156E230E166E410E176E34C002F0B5
:1015880035C003F0046A056A000E76EC07F002C065
:1015980010F003C011F004C012F005C013F02DECD8
:1015A80002F010C029F011C02AF012C02BF013C0AD
:1015B8002CF0D6EC08F029504D6E12000F6A0BBEC5
:1015C800EAEF0AF0E8EF0AF0F0EF0AF00A6C0B1EF7
:1015D800D8B00B2A010E0F6E0DBEF7EF0AF0F5EF2B
:1015E8000AF0FBEF0AF00C6C0D1ED8B00D2A0C5057
:1015F8000D10D8B402EF0BF004EF0BF028EF0BF04E
:10160800010E0E6E0CEF0BF0D8900C360D360E2A2C
:101618000DAE11EF0BF013EF0BF008EF0BF00C50C1
:101628000A5C0D500B58D8A01CEF0BF01EEF0BF006
:1016380022EF0BF00C500A5E0D500B5AD8900D3269
:101648000C320E2E13EF0BF00F50D8B42EEF0BF018
:1016580030EF0BF034EF0BF00A6C0B1ED8B00B2AEE
:101668000AC00AF00BC00BF01200956A9450F80BF0
:10167800946E8290C30E046ECD0EE82EFED7042E13
:10168800FCD70000000E026E330E6CEC0EF01B0E41
:10169800046E9E0EE82EFED7042EFCD700D0000E56
:1016A800026E330E6CEC0EF0A60EE82EFED700D0BC
:1016B800000E026E330E6CEC0EF000D000D000006D
:1016C800000E026E020E6CEC0EF0A60EE82EFED78F
:1016D80000D0000E026E380E6CEC0EF0A60EE82E4E
:1016E800FED700D0000E026E010E6CEC0EF0040E58
:1016F800046E3E0EE82EFED7042EFCD7000E026EB6
:101708000C0E6CEC0EF0A60EE82EFED700D01200E0
:101718004CC002F0036A056A0A0E046EC9EC09F0AF
:101728000250300F0001AF6F4CC00AF00B6A0D6A0F
:101738000A0E0C6EE2EC0AF00A50300F0001B06F8E
:101748003A0EB16F4BC002F0036A056A0A0E046EC6
:10175800C9EC09F00250300F0001B26F4BC00AF01B
:101768000B6A0D6A0A0E0C6EE2EC0AF00A50300F92
:101778000001B36F3A0EB46F4AC002F0036A056AFB
:101788000A0E046EC9EC09F00250300F0001B56F63
:101798004AC00AF00B6A0D6A0A0E0C6EE2EC0AF0F7
:1017A8000A50300F0001B66FB76B12001050D96E97
:1017B800DA6A056A640E046E11C002F0036AC9ECA5
:1017C80009F002C00AF003C00BF00D6A0A0E0C6E95
:1017D800E2EC0AF00A50300FDF6E1050D96EDA6A68
:1017E800010ED926056A0A0E046E11C002F0036ABA
:1017F800C9EC09F002C00AF003C00BF00D6A0A0E2A
:101808000C6EE2EC0AF00A50300FDF6E1050D96E01
:10181800DA6A020ED92611C00AF00B6A0D6A0A0E9E
:101828000C6EE2EC0AF00A50300FDF6E1050D96EE1
:10183800DA6A030ED926DF6A1200036E0304D8A4FD
:1018480028EF0CF02AEF0CF054EF0CF050EC08F0F5
:10185800446E4428D8B433EF0CF035EF0CF048EF61
:101868000CF05550D8B43BEF0CF03DEF0CF048EFBE
:101878000CF0556A820E026EDE0EE82EFED7022E9E
:10188800FCD7445061EF0CF04428D8A44EEF0CF07C
:1018980050EF0CF060EF0CF0010E556E60EF0CF09D
:1018A8000350D8A45AEF0CF05CEF0CF060EF0CF08A
:1018B80050EC08F061EF0CF0FF0E1200000E026E03
:1018C80006506CEC0EF07FEF0CF0010E026E04C0B7
:1018D800F6FF05C0F7FFF86A050EF76403D00800A5
:1018E800F55005D0F6CFE9FFF7CFEAFFEF506CECE3
:1018F8000EF0044A052A04C0F6FF05C0F7FFF86A8F
:10190800050EF76403D00800F55005D0F6CFE9FFBF
:10191800F7CFEAFFEF500009D8A495EF0CF097EF46
:101928000CF069EF0CF012004DC003F050504CEC75
:101938000EF04EC003F050284CEC0EF04CC003F0F3
:101948005050020F4CEC0EF04BC003F05050030FF8
:101958004CEC0EF04AC003F05050040F4CEC0EF063
:10196800050E5026310E5064BCEF0CF0BEEF0CF0A3
:10197800C6EF0CF0506A010E4F6E4FC003F0650EB3
:101988004CEC0EF050C003F0640E4CEC0EF012005C
:10199800000E026E010E6CEC0EF0A30E046E2F0EFC
:1019A800056E840E066E62EC0CF0B50E046E2F0EFA
:1019B800056EC40E066E62EC0CF0506A4F6A50C099
:1019C80003F0640E4CEC0EF04FC003F0650E4CECC7
:1019D8000EF0330E086EBB0E076EE00EE82EFED733
:1019E800072EFCD7082EFAD7010E516E000E026E94
:1019F800010E6CEC0EF0120016EF0DF003C0F6FFAE
:101A080004C0F7FFF86A050EF76403D00800F55024
:101A180005D0F6CFE9FFF7CFEAFFEF5004EC0FF05F
:101A2800034A042A03C0F6FF04C0F7FFF86A050E4C
:101A3800F76403D00800F55005D0F6CFE9FFF7CFDB
:101A4800EAFFEF500009D8A42CEF0DF02EEF0DF0AF
:101A580002EF0DF01200000E89EC0EF0066E010E7A
:101A680089EC0EF0076E020E89EC0EF0086E06C0C7
:101A780005F00F0E051606380F0B070B0A0DF3506D
:101A880005244A6E07C005F00F0E051607380F0B20
:101A98000F0B0A0DF35005244B6E08C005F00F0E0E
:101AA800051608380F0B010B0A0DF35005244C6E70
:101AB80012006E0EF66E1B0EF76E000EF86E00EE3C
:101AC80060F010EE58F00900F5CFEEFFE550E15058
:101AD800FAE1880EF66E1E0EF76E000EF86E00EE36
:101AE80052F010EE08F00900F5CFEEFFE550E15096
:101AF800FAE100EE40F0120EEE6AE806FDE1019010
:101B08000192000EF86E000129EF0AF00600F2A417
:101B180090EF0DF092EF0DF0B5EF0DF0090ED62411
:101B2800D66E000ED720D76E010E4026000E412239
:101B380042224322210E401809E14E0E411842105C
:101B48004310D8A4AAEF0DF0ACEF0DF0B4EF0DF0F0
:101B5800000E406E000E416E000E426E000E436E87
:101B6800F29401921100DF2FE22FE52FE82FEB2FDF
:101B7800EE2FF12FF42FF72FDC2FDF2FE22FE52F99
:101B8800E82FEB2FEE2FF12FF42FF72FDC2FD42F88
:101B9800E02FE32FE62FE92FEC2FFD2FAC2F912F0D
:101BA8009A2F7D2F2054494D45202020204556202E
:101BB800205350200030303A30303A303000000E98
:101BC80089EC0EF0056E05508009036E000EC3EC1B
:101BD8000EF0020E89EC0EF0056E05504009036EFA
:101BE800020EC3EC0EF0930E036E070EC3EC0EF05C
:101BF800000E89EC0EF0056E05507F0B036E000E8B
:101C0800C3EC0EF01200086E08C004F0D890043639
:101C1800D8900436C250C30B0410C26EC282C2B23E
:101C280018EF0EF01AEF0EF013EF0EF0C350C4CFFA
:101C380004F0056A04C005F0046A0410066E055035
:101C4800076E06C002F007C003F01200000E026E15
:101C5800010E6CEC0EF0870E046E2F0E056E830ECF
:101C6800066E62EC0CF0CF0E046E2F0E056EC40EDD
:101C7800066E62EC0CF0010E21EC0CF0076E0728E2
:101C8800D8B449EF0EF04BEF0EF03FEF0EF0120014
:101C9800066E54EC0FF0A00E39EC0FF0065039EC3C
:101CA8000FF0035039EC0FF050EC0FF00B0E056EEF
:101CB800B80E046E0406D8A00506042806E1052817
:101CC800D8A469EF0EF06BEF0EF05EEF0EF0120085
:101CD800036E02B072EF0EF075EF0EF0828276EFAF
:101CE8000EF0829203C083FF82848294956882807A
:101CF80082928284829483BE84EF0EF086EF0EF087
:101D08007DEF0EF08290956A1200036E54EC0FF08E
:101D1800D00E39EC0FF0035039EC0FF048EC0FF00F
:101D2800D10E39EC0FF033EC0FF0046E50EC0FF0DD
:101D380004501200036E54EC0FF0A00E39EC0FF0B3
:101D4800035039EC0FF048EC0FF0A10E39EC0FF00E
:101D580033EC0FF0046E50EC0FF004501200516A8F
:101D680039EC0BF00FEC0FF019EC0FF0D2EC0EF091
:101D7800F9EC0EF0E3EC0DF0E0EC0EF01200046E5E
:101D880054EC0FF0D00E39EC0FF0045039EC0FF092
:101D9800035039EC0FF050EC0FF01200C08EC09ACF
:101DA800C088C096C090C082C094C292C19AC1989F
:101DB800C46AC36AC2801200949C948EAC8AAC98A0
:101DC800AC84AB8EAB88B890B892B896810EAF6EE3
:101DD8001200116E000E026E10506CEC0EF0010E27
:101DE800026E11506CEC0EF0120094869488280E46
:101DF800C66E310EC86EC79CC78E9E96A1961200FD
:101E0800026E9EA80AEF0FF00CEF0FF005EF0FF02F
:101E180002C0ADFF1200D58CD59AD58ED586D76A6B
:101E2800060ED66EF294F28A12000F0EC16E1E0EC6
:101E3800936EF19E8150E009816E12009EA627EFF5
:101E48000FF029EF0FF022EF0FF09E9612009E0E72
:101E5800046E056A800E066E62EC0CF012004CEC03
:101E68000FF03FEC0FF0C9501200026E02C0C9FF1C
:101E780022EC0FF01200C58AC58822EC0FF0120080
:101E88004F4E000130300000C58222EC0FF01200E6
:101E9800C58622EC0FF01200C58422EC0FF0120068
:081EA800C58022EC0FF01200CE
:102F2C0000534E202053504420204745415220202E
:102F3C0054494D450A0D004E4F204C4F47532054D9
:102F4C004F205052494E540A0D00534E20535020DE
:102F5C002047522054494D45004E4F204C4F47536B
:102F6C0020544F200054494D45205341564544218F
:102F7C0000434C454152204C4F4700434F4C4C4969
:102F8C0053494F4E00444F574E4C4F41440053450C
:102F9C00542054494D4500434C454152494E47003D
:102FAC0056494557204C4F4700544845204C4F47F5
:102FBC00530048483A4D4D3A535300444953504CF2
:102FCC0041590048415050454E00202020202000FF
:102FDC0031300030310030320030330030340030CA
:102FEC0035003036003037003038003039002D3E97
:042FFC00005200007F
:00000001FF
