:0400000007EF00F016
:1000080001822DED0EF000EF0EF0000E026E010ED3
:1000180018EC0FF01F6A206A216A010E226E1E6A10
:10002800000E166E000E176E000E186E000E196E7A
:10003800BD0E046E2F0E056E830E066E39EC0DF0A4
:10004800010EC2EC0CF01D6E020E1D18D8A42FEF85
:1000580000F031EF00F072EF00F02204D8A437EF7F
:1000680000F039EF00F046EF00F0212A3C0E21188D
:10007800D8A441EF00F043EF00F04CEF01F0216A03
:100088004CEF01F0020E2218D8A44DEF00F04FEF0C
:1000980000F05CEF00F0202A3C0E2018D8A457EF9F
:1000A80000F059EF00F04CEF01F0206A4CEF01F03E
:1000B800030E2218D8A463EF00F065EF00F04CEFB0
:1000C80001F01F2A180E1F18D8A46DEF00F06FEF6B
:1000D80000F04CEF01F01F6A4CEF01F01D04D8A4AA
:1000E80078EF00F07AEF00F0BBEF00F02204D8A41C
:1000F80080EF00F082EF00F08FEF00F0210621285A
:10010800D8A489EF00F08BEF00F04CEF01F03B0E24
:10011800216E4CEF01F0020E2218D8A496EF00F0E1
:1001280098EF00F0A5EF00F020062028D8A49FEF54
:1001380000F0A1EF00F04CEF01F03B0E206E4CEF09
:1001480001F0030E2218D8A4ACEF00F0AEEF00F0D7
:100158004CEF01F01F061F28D8A4B5EF00F0B7EF49
:1001680000F04CEF01F0170E1F6E4CEF01F0040E7B
:100178001D18D8A4C2EF00F0C4EF00F0D2EF00F0D1
:10018800222A040E2218D8A4CCEF00F0CEEF00F0FB
:100198004CEF01F0010E226E4CEF01F00B0E1D1812
:1001A800D8A4D9EF00F0DBEF00F04CEF01F0000E1F
:1001B800026E010E18EC0FF01FC00AF00B6A0D6AF0
:1001C8000A0E0C6E83EC0BF00AC012F00BC013F091
:1001D8001FC002F0036A056A0A0E046E6AEC0AF090
:1001E8000238F00B12101A6E20C00AF00B6A0D6A62
:1001F8000A0E0C6E83EC0BF00AC012F00BC013F061
:1002080020C002F0036A056A0A0E046E6AEC0AF05E
:100218000238F00B12101B6E21C00AF00B6A0D6A2F
:100228000A0E0C6E83EC0BF00AC012F00BC013F030
:1002380021C002F0036A056A0A0E046E6AEC0AF02D
:100248000238F00B12101C6E1AC003F0020E6FEC8D
:100258000FF01BC003F0010E6FEC0FF01CC003F091
:10026800000E6FEC0FF0650E046E2F0E056E830EF8
:10027800066E39EC0DF0330E136EBB0E126EE00EE7
:10028800E82EFED7122EFCD7132EFAD72AEF02F04B
:1002980016C012F017C013F018C014F019C015F0EA
:1002A800162A000E172218221922155014100BE1D5
:1002B800F40E125C010E1358D8A065EF01F067EF39
:1002C80001F07AEF01F0000E166E000E176E000EA8
:1002D800186E000E196E1E50D8B475EF01F078EF45
:1002E80001F0010E79EF01F0000E1E6E030E2218C8
:1002F800D8A481EF01F083EF01F095EF01F01E50D3
:10030800D8B489EF01F08BEF01F095EF01F0D80E2A
:10031800046E2F0E056EC30E066E39EC0DF0B1EFAC
:1003280001F0C30E106E1FC002F0036A056A0A0EC0
:10033800046E6AEC0AF00250300F99EC0FF0C40E0C
:10034800106E1FC00AF00B6A0D6A0A0E0C6E83EC61
:100358000BF00A50300F99EC0FF0C50E106E3A0EE4
:1003680099EC0FF0020E2218D8A4BDEF01F0BFEFF0
:1003780001F0D1EF01F01E50D8B4C5EF01F0C7EF7E
:1003880001F0D1EF01F0D80E046E2F0E056EC60EE7
:10039800066E39EC0DF0EDEF01F0C60E106E20C0C0
:1003A80002F0036A056A0A0E046E6AEC0AF002504B
:1003B800300F99EC0FF0C70E106E20C00AF00B6AD0
:1003C8000D6A0A0E0C6E83EC0BF00A50300F99EC94
:1003D8000FF0C80E106E3A0E99EC0FF02204D8A454
:1003E800F8EF01F0FAEF01F00CEF02F01E50D8B46C
:1003F80000EF02F002EF02F00CEF02F0D80E046EEC
:100408002F0E056EC90E066E39EC0DF024EF00F0C4
:10041800C90E106E21C002F0036A056A0A0E046E46
:100428006AEC0AF00250300F99EC0FF0CA0E106E09
:1004380021C00AF00B6A0D6A0A0E0C6E83EC0BF0F1
:100448000A50300F99EC0FF024EF00F0010E516EB6
:1004580012001350800B206E13501324276E12AE17
:1004680038EF02F03AEF02F03BEF02F02780275016
:10047800D8B441EF02F043EF02F057EF02F027281B
:10048800D8A449EF02F04BEF02F053EF02F0000E50
:10049800106E000E116E000E126E000E136E128E8C
:1004A800136A5FEF02F0000E106E000E116E000E60
:1004B800126E000E136E1750800B201A1750172457
:1004C800286E16AE6AEF02F06CEF02F06DEF02F0E4
:1004D80028802850D8B473EF02F075EF02F089EF46
:1004E80002F02828D8A47BEF02F07DEF02F085EF18
:1004F80002F0000E146E000E156E000E166E000E41
:10050800176E168E176A91EF02F0000E146E000E29
:10051800156E000E166E000E176E1450151016107C
:100528001710D8A49AEF02F09CEF02F0B4EF02F093
:10053800000E106E000E116E000E126E000E136E7D
:10054800800E12127F0E13122050131210C010F0DA
:1005580011C011F012C012F013C013F0F3EF03F042
:100568002750D8A4BAEF02F0BCEF02F0C6EF02F0B1
:10057800000E106E000E116E000E126E000E136E3D
:10058800F3EF03F0285027C018F0196A185E000E20
:10059800195A7F0E1824216E000E1920226E10C0E1
:1005A8001CF011C01DF012C01EF013C01FF0000E89
:1005B800106E000E116E000E126E000E136E000EFD
:1005C800236E000E246E000E256E000E266E286A1D
:1005D80026EF03F02850D8B4F4EF02F0F6EF02F05B
:1005E8000DEF03F0D8901C361D361E361F36D890F6
:1005F800103611361236133626AE05EF03F007EF24
:1006080003F008EF03F01080D890233624362536FF
:10061800263614501C5C15501D5816501E5817507D
:100628001F58D8A01AEF03F01CEF03F025EF03F0D2
:10063800268C14501C5E15501D5A16501E5A175001
:100648001F5A282A190E28642CEF03F02EEF03F006
:10065800EEEF02F01C501D101E101F10D8B437EF1B
:1006680003F039EF03F051EF03F0238051EF03F06B
:10067800D890103611361236133626AE46EF03F0F0
:1006880048EF03F049EF03F01080D8902336243662
:10069800253626362106D8A0220612AE56EF03F0DC
:1006A80058EF03F03CEF03F0286A26AE5EEF03F044
:1006B80060EF03F084EF03F0FF0E2314186EFF0EB3
:1006C8002414196EFF0E25141A6E7F0E26141B6E45
:1006D800185019101A101B10D8B475EF03F077EFE3
:1006E80003F07BEF03F0010E286E84EF03F010A0F7
:1006F80080EF03F082EF03F084EF03F077EF03F06D
:100708002850D8B48AEF03F08CEF03F0B0EF03F071
:10071800010E1026000E11221222132213A097EFA9
:1007280003F099EF03F0B0EF03F010C018F011C018
:1007380019F012C01AF013C01BF01B341B321A3206
:100748001932183218C010F019C011F01AC012F07E
:100758001BC013F0214A222A22BEBBEF03F022500D
:1007680008E12128D8A0BBEF03F0BDEF03F0C8EFE4
:1007780003F0000E226E2168000E106E000E116E3E
:10078800000E126E000E136E22BED5EF03F022503B
:1007980006E12104D8B0D3EF03F0D5EF03F0E1EF81
:1007A80003F0226A000E216E000E106E000E116E0C
:1007B800000E126E000E136E206A21C027F027A0CB
:1007C800E8EF03F0EAEF03F0EDEF03F0128EEEEF3F
:1007D80003F0129ED8902730136EA8EF02F0120093
:1007E8004F50D8A4FAEF03F0FCEF03F02CEF04F01D
:1007F8005050D8A402EF04F004EF04F02CEF04F0FA
:10080800010E536E466A456A000E026E010E18EC20
:100818000FF0710E046E2F0E056E830E066E39EC06
:100828000DF0C60E046E2F0E056EC40E066E39EC62
:100838000DF0330E136EBB0E126EE00EE82EFED7CF
:10084800122EFCD7132EFAD7010E516EAEEF05F01B
:100858005350D8B432EF04F034EF04F04CEF04F006
:10086800536A466A456A000E026E010E18EC0FF0D4
:10087800480E046E2F0E056E800E066E39EC0DF0D4
:10088800570E046E2F0E056EC00E066E39EC0DF075
:10089800010EC2EC0CF03C6E020E3C18D8B457EFB7
:1008A80004F059EF04F061EF04F03C04D8A45FEFC2
:1008B80004F061EF04F09AEF05F0020E3C18D8A49A
:1008C80068EF04F06AEF04F0A6EF04F04F50D8A4E4
:1008D80070EF04F072EF04F090EF04F05050126ED5
:1008E800136A4650146E156A050E1426000E15225A
:1008F8001250145C1550800A166E1350800A165850
:10090800D8B089EF04F08BEF04F0C5EF04F0050EC2
:100918004626452AC5EF04F0090E456096EF04F017
:1009280098EF04F0C5EF04F0050E4626452A310E6F
:100938004664A1EF04F0A3EF04F0C5EF04F0466AA3
:10094800C5EF04F03C04D8A4ACEF04F0AEEF04F01B
:10095800C5EF04F04550D8B4B4EF04F0B6EF04F096
:10096800C5EF04F0050E4660BCEF04F0BEEF04F0DE
:10097800C2EF04F02D0E466EC4EF04F0050E465E7D
:10098800450646504AEC0FF0386E46284AEC0FF000
:100998003D6E4650020F4AEC0FF0396E4650030F79
:1009A8004AEC0FF03A6E4650040F4AEC0FF03B6EDB
:1009B8002B0E106E38C011F07BEC0CF039C002F031
:1009C800036A056A0A0E046E6AEC0AF00250300FD8
:1009D8002F6E39C00AF00B6A0D6A0A0E0C6E83EC92
:1009E8000BF00A50300F306E3A0E316E3AC002F0FA
:1009F800036A056A0A0E046E6AEC0AF00250300FA8
:100A0800326E3AC00AF00B6A0D6A0A0E0C6E83EC5D
:100A18000BF00A50300F336E3A0E346E3BC002F0C2
:100A2800036A056A0A0E046E6AEC0AF00250300F77
:100A3800356E3BC00AF00B6A0D6A0A0E0C6E83EC29
:100A48000BF00A50300F366E376A20EE74F010EE55
:100A580017F0130EDBCFE3FFE806FCE2000E026E90
:100A6800010E18EC0FF0480E046E2F0E056E800E66
:100A7800066E39EC0DF04550020DF350170FD96E84
:100A8800DA6ADECF04F0DDCF05F0C00E066E39EC71
:100A98000DF02B0E046E056AC30E066E39EC0DF0D0
:100AA8003D50D8A45AEF05F05CEF05F063EF05F070
:100AB800C70E106E4E0E99EC0FF091EF05F0060E72
:100AC8003D6069EF05F06BEF05F073EF05F0C70EB9
:100AD800106E3D50300F99EC0FF091EF05F0060EB7
:100AE8003D18D8A47AEF05F07CEF05F083EF05F008
:100AF800C70E106E520E99EC0FF091EF05F0070E2D
:100B08003D18D8A48AEF05F08CEF05F091EF05F0B9
:100B1800C70E106E430E99EC0FF02F0E046E056A87
:100B2800C80E066E39EC0DF0AEEF05F00C0E3C1851
:100B3800D8A4A1EF05F0A3EF05F0AEEF05F0010E84
:100B4800536E466A456A010E516E000E026E010E22
:100B580018EC0FF01200346A4F50D8A4B6EF05F025
:100B6800B8EF05F0CAEF05F05050D8A4BEEF05F075
:100B7800C0EF05F0CAEF05F0350E036E2F0E046EB8
:100B8800A3EC0DF0010E516EE3EF06F01F0E036E9D
:100B98002F0E046EA3EC0DF020EE60F010EE12F0B4
:100BA800130EDBCFE3FFE806FCE24F04D8A4DFEF27
:100BB80005F0E1EF05F0E5EF05F050C03BF0E6EF9A
:100BC80005F03B6A366A000E356E4F50D8A4EFEF39
:100BD80005F0F1EF05F0FCEF05F050503B5CD8A0B4
:100BE800F8EF05F0FAEF05F0FCEF05F0DFEF06F09F
:100BF8003B504AEC0FF0336E3B284AEC0FF03A6E4C
:100C08003B50020F4AEC0FF0376E3B50030F4AEC93
:100C18000FF0386E3B50040F4AEC0FF0396E260E79
:100C2800106E33C011F07BEC0CF037C002F0036A91
:100C3800056A0A0E046E6AEC0AF00250300F2A6E3A
:100C480037C00AF00B6A0D6A0A0E0C6E83EC0BF0C3
:100C58000A50300F2B6E3A0E2C6E38C002F0036A21
:100C6800056A0A0E046E6AEC0AF00250300F2D6E07
:100C780038C00AF00B6A0D6A0A0E0C6E83EC0BF092
:100C88000A50300F2E6E3A0E2F6E39C002F0036AEA
:100C9800056A0A0E046E6AEC0AF00250300F306ED4
:100CA80039C00AF00B6A0D6A0A0E0C6E83EC0BF061
:100CB8000A50300F316E326A3450020DF350120F61
:100CC800D96EDA6ADECF03F0DDCF04F0A3EC0DF0C5
:100CD800D90E036E2F0E046EA3EC0DF0260E036ED4
:100CE800046AA3EC0DF0D90E036E2F0E046EA3EC6C
:100CF8000DF03A50D8A483EF06F085EF06F08AEF9E
:100D080006F04E0EB0EC0FF0B2EF06F0060E3A60A9
:100D180090EF06F092EF06F098EF06F03A50300F99
:100D2800B0EC0FF0B2EF06F0060E3A18D8A49FEF19
:100D380006F0A1EF06F0A6EF06F0520EB0EC0FF0A9
:100D4800B2EF06F0070E3A18D8A4ADEF06F0AFEFF1
:100D580006F0B2EF06F0430EB0EC0FF0D50E036EBE
:100D68002F0E046EA3EC0DF02A0E036E046AA3EC9A
:100D78000DF0320E036E2F0E046EA3EC0DF0342A24
:100D8800050E3B26310E3B64CCEF06F0CEEF06F0A5
:100D9800CFEF06F03B6A354A362A36BEDDEF06F05D
:100DA800365009E10A0E355CD8A0DDEF06F0DFEF1A
:100DB80006F0E9EF05F0010E536E010E516E1200B8
:100DC8005350D8B4EAEF06F0ECEF06F0F5EF06F072
:100DD800496A486A476A536A000E026E010E18ECA7
:100DE8000FF020EE96F010EE08F0070EDBCFE3FFD1
:100DF800E806FCE2010EC2EC0CF0146E020E1418A8
:100E0800D8A409EF07F00BEF07F03BEF07F0030E4C
:100E1800476011EF07F013EF07F03BEF07F0472AA1
:100E28004750D8A41AEF07F01CEF07F021EF07F09E
:100E3800116A000E106E27EF07F0FF0E4724106EA0
:100E4800116AFF0E112210C049F04750D8A42FEFA5
:100E580007F032EF07F0010E33EF07F0000E486E8F
:100E6800000E026E010E18EC0FF0BCEF07F0140430
:100E7800D8A441EF07F043EF07F073EF07F04750AE
:100E8800D8B449EF07F04BEF07F073EF07F04706C8
:100E98004750D8A452EF07F054EF07F059EF07F086
:100EA800136A000E126E5FEF07F0FF0E4724126EF2
:100EB800136AFF0E132212C049F04750D8A467EFF7
:100EC80007F06AEF07F0010E6BEF07F0000E486EAF
:100ED800000E026E010E18EC0FF0BCEF07F00B0EBF
:100EE8001418D8A47AEF07F07CEF07F0AAEF07F000
:100EF800010E536E4750D8A484EF07F086EF07F031
:100F080088EF07F0020E516E4704D8A48EEF07F061
:100F180090EF07F092EF07F0040E516E020E47189B
:100F2800D8A499EF07F09BEF07F09DEF07F0050EA7
:100F3800516E030E4718D8A4A4EF07F0A6EF07F0E8
:100F4800BCEF07F0030E516EBCEF07F00C0E14183F
:100F5800D8A4B1EF07F0B3EF07F0BCEF07F0496A88
:100F6800486A476A516A000E026E010E18EC0FF0CB
:100F78004850D8A4C2EF07F0C4EF07F0D6EF07F047
:100F8800F90E046E2F0E056E800E066E39EC0DF00C
:100F9800D80E046E2F0E056EC00E066E39EC0DF0DD
:100FA800E6EF07F0D80E046E2F0E056E800E066E63
:100FB80039EC0DF0F90E046E2F0E056EC00E066E9C
:100FC80039EC0DF04950020DF350080FD96EDA6A6A
:100FD800DECF04F0DDCF05F0830E066E39EC0DF0A0
:100FE8004950020DF3CF07F0020E07260750080FED
:100FF800D96EDA6ADECF04F0DDCF05F0C30E066ED7
:1010080039EC0DF012000A6E0A50D8B40EEF08F051
:1010180010EF08F032EF08F005BE17EF08F015EFF3
:1010280008F032EF08F002C006F003C007F004C071
:1010380008F005C009F0061E071E081E091E062A2C
:10104800000E07220822092206C00CF007C00DF086
:1010580008C00EF009C00FF03AEF08F002C00CF01B
:1010680003C00DF004C00EF005C00FF002500310CD
:1010780004100510D8A443EF08F045EF08F04FEF2F
:1010880008F0000E026E000E036E000E046E000ED5
:10109800056EE0EF08F0960E0B6E59EF08F00B2A7C
:1010A800D8900F320E320D320C32000E0C14066E30
:1010B800000E0D14076E000E0E14086EFE0E0F14AF
:1010C800096E0650071008100910D8A46EEF08F032
:1010D80070EF08F053EF08F07EEF08F00B2A010ECE
:1010E8000C26000E0D220E220F22D8900F320E323F
:1010F8000D320C32000E0C14066E000E0D14076E25
:10110800000E0E14086EFF0E0F14096E065007101D
:1011180008100910D8A493EF08F095EF08F072EFC3
:1011280008F09DEF08F00B06D8900C360D360E36F9
:101138000F360EBEA2EF08F0A4EF08F0ACEF08F0EF
:10114800020E0B60AAEF08F0ACEF08F097EF08F07A
:101158000BB0B1EF08F0B3EF08F0B4EF08F00E9E53
:10116800D8900B320BC006F0076A086A096A06C0F5
:1011780009F0086A076A066A06500C1207500D1231
:1011880008500E1209500F120A50D8B4CEEF08F0CA
:10119800D0EF08F0D8EF08F005BED7EF08F0D5EF8C
:1011A80008F0D8EF08F00F8E0CC002F00DC003F065
:1011B8000EC004F00FC005F01200819A818C818E58
:1011C80081B2E9EF08F0EBEF08F0EEEF08F0010E5E
:1011D80066EF09F081B4F3EF08F0F5EF08F0F8EFE7
:1011E80008F0040E66EF09F081B6FDEF08F0FFEF96
:1011F80008F002EF09F0070E66EF09F081B807EF73
:1012080009F009EF09F00CEF09F00A0E66EF09F092
:10121800818A819C818E81B214EF09F016EF09F062
:1012280019EF09F0020E66EF09F081B41EEF09F01C
:1012380020EF09F023EF09F0050E66EF09F081B6FB
:1012480028EF09F02AEF09F02DEF09F0080E66EFF4
:1012580009F081B832EF09F034EF09F037EF09F0FF
:101268000B0E66EF09F0818A818C819E81B23FEF77
:1012780009F041EF09F044EF09F0030E66EF09F0B9
:1012880081B449EF09F04BEF09F04EEF09F0060E73
:1012980066EF09F081B653EF09F055EF09F058EF02
:1012A80009F0090E66EF09F081B85DEF09F05FEF0C
:1012B80009F062EF09F00C0E66EF09F0818A818C63
:1012C800818EFF0E12002B342C34326E3250D8A48B
:1012D80070EF09F072EF09F07CEF09F0000E296E4B
:1012E800000E2A6E000E2B6E000E2C6EE9EF09F030
:1012F80029C02DF02AC02EF02BC02FF02CC030F0C2
:10130800200E8CEF09F0D89030322F322E322D3249
:10131800E82E87EF09F02D50316E2B8EFF0E29161F
:10132800FF0E2A16FF0E2B16000E2C16960E325E96
:1013380032BEA3EF09F0A1EF09F0B9EF09F032507E
:10134800800A970FD8B0ABEF09F0ADEF09F0AFEF17
:1013580009F072EF09F0D8902C322B322A32293258
:10136800323EAFEF09F0D1EF09F01F0E3264BFEF44
:1013780009F0C1EF09F0C9EF09F072EF09F0D89050
:1013880029362A362B362C3632063250D8A4CFEFDF
:1013980009F0D1EF09F0C3EF09F03150D8B4D7EF15
:1013A80009F0D9EF09F0E1EF09F02C1E2B1E2A1ED7
:1013B800296C000E2A222B222C2229C029F02AC0AF
:1013C8002AF02BC02BF02CC02CF012005450D8B4AB
:1013D800F0EF09F0F2EF09F0F8EF09F0546A000EA7
:1013E800026E010E18EC0FF0D2EC0DF027EC0BF0AA
:1013F8002DEC0CF0D7EC0FF0AF0E046E056AC00EA2
:10140800066E39EC0DF04E50020DF350880FD96E70
:10141800DA6ADECF04F0DDCF05F0CA0E066E39ECCD
:101428000DF0550E046E056ACD0E066E39EC0DF002
:10143800010EC2EC0CF0366E0B0E3618D8A427EF4E
:101448000AF029EF0AF034EF0AF0010E546E000E8C
:10145800026E010E18EC0FF0010E516E69EF0AF0E2
:10146800020E3618D8A43BEF0AF03DEF0AF04AEF17
:101478000AF0060E4E6043EF0AF045EF0AF04AEF15
:101488000AF04E2A6FEC0DF069EF0AF03604D8A482
:1014980050EF0AF052EF0AF05DEF0AF04E50D8B460
:1014A80058EF0AF05AEF0AF05DEF0AF04E0646EFE1
:1014B8000AF0070E3618D8A464EF0AF066EF0AF0AF
:1014C80069EF0AF086EC0EF04E6A1200076A05BE54
:1014D80072EF0AF070EF0AF078EF0AF0046C051E5C
:1014E800D8B0052A010E076E03BE7FEF0AF07DEF24
:1014F8000AF085EF0AF0026C031ED8B0032A010E29
:10150800071A096A000E086E04500510D8B48FEF48
:101518000AF091EF0AF0B9EF0AF0010E066E99EFA2
:101528000AF0D89004360536062A05AE9EEF0AF072
:10153800A0EF0AF095EF0AF0D89008360936045063
:10154800025C05500358D8A0ACEF0AF0AEEF0AF0E1
:10155800B3EF0AF00450025E0550035A0880D89091
:1015680005320432062EA0EF0AF00750D8B4BFEFB8
:101578000AF0C1EF0AF0C5EF0AF0086C091ED8B0EE
:10158800092A08C002F009C003F012005FEC0FF04E
:10159800660E4AEC0FF0BB0AD8A4D5EF0AF0D7EFD5
:1015A8000AF0E1EF0AF0650E4AEC0FF04F6E640E98
:1015B8004AEC0FF0506EE3EF0AF04F6A506ABB0E28
:1015C800036E660EF8EC0EF000EF0BF0EAEC09F093
:1015D80000EF0BF0E4EC06F000EF0BF0F4EC03F096
:1015E80000EF0BF0AFEC05F000EF0BF003EC0DF0A3
:1015F80000EF0BF009EC00F051503E6E3F6A3F508F
:10160800000AD8B40AEF0BF000EF0BF03E50000AC6
:10161800D8B4EAEF0AF0010AD8B4EEEF0AF0030AE8
:10162800D8B4F2EF0AF0010AD8B4FEEF0AF0070ABC
:10163800D8B4F6EF0AF0010AD8B4FAEF0AF000EFCE
:101648000BF007EF00F0040ED5EC0EF002C034F0FA
:1016580003C035F0140E146EAE0E156E230E166E02
:10166800410E176E34C002F035C003F0046A056AF3
:10167800000E07EC08F002C010F003C011F004C01F
:1016880012F005C013F02DEC02F010C029F011C0C3
:101698002AF012C02BF013C02CF067EC09F0295087
:1016A800336E550E106E33C011F07BEC0CF0140E37
:1016B800146EAE0E156E230E166E410E176E34C0E4
:1016C80002F035C003F0046A056A000E07EC08F062
:1016D80002C010F003C011F004C012F005C013F0EE
:1016E8002DEC02F010C029F011C02AF012C02BF026
:1016F80013C02CF067EC09F029504D6E12000F6AE8
:101708000BBE8BEF0BF089EF0BF091EF0BF00A6C2F
:101718000B1ED8B00B2A010E0F6E0DBE98EF0BF002
:1017280096EF0BF09CEF0BF00C6C0D1ED8B00D2A49
:101738000C500D10D8B4A3EF0BF0A5EF0BF0C9EFC8
:101748000BF0010E0E6EADEF0BF0D8900C360D3687
:101758000E2A0DAEB2EF0BF0B4EF0BF0A9EF0BF0C1
:101768000C500A5C0D500B58D8A0BDEF0BF0BFEF22
:101778000BF0C3EF0BF00C500A5E0D500B5AD890CB
:101788000D320C320E2EB4EF0BF00F50D8B4CFEF51
:101798000BF0D1EF0BF0D5EF0BF00A6C0B1ED8B0A5
:1017A8000B2A0AC00AF00BC00BF01200956A94507D
:1017B800F80B946E8290C30E046ECD0EE82EFED701
:1017C800042EFCD70000000E026E330E18EC0FF04A
:1017D8001B0E046E9E0EE82EFED7042EFCD700D0FA
:1017E800000E026E330E18EC0FF0A60EE82EFED790
:1017F80000D0000E026E330E18EC0FF000D000D0AF
:101808000000000E026E020E18EC0FF0A60EE82E75
:10181800FED700D0000E026E380E18EC0FF0A60EA0
:10182800E82EFED700D0000E026E010E18EC0FF065
:10183800040E046E3E0EE82EFED7042EFCD7000ED2
:10184800026E0C0E18EC0FF0A60EE82EFED700D094
:1018580012004CC002F0036A056A0A0E046E6AECB4
:101868000AF00250300F0001AF6F4CC00AF00B6A4B
:101878000D6A0A0E0C6E83EC0BF00A50300F000153
:10188800B06F3A0EB16F4BC002F0036A056A0A0ED8
:10189800046E6AEC0AF00250300F0001B26F4BC0C0
:1018A8000AF00B6A0D6A0A0E0C6E83EC0BF00A50F4
:1018B800300F0001B36F3A0EB46F4AC002F0036AEA
:1018C800056A0A0E046E6AEC0AF00250300F000135
:1018D800B56F4AC00AF00B6A0D6A0A0E0C6E83ECEB
:1018E8000BF00A50300F0001B66FB76B12001050A2
:1018F800D96EDA6A056A640E046E11C002F0036AD2
:101908006AEC0AF002C00AF003C00BF00D6A0A0E76
:101918000C6E83EC0BF00A50300FDF6E1050D96E4E
:10192800DA6A010ED926056A0A0E046E11C002F0A1
:10193800036A6AEC0AF002C00AF003C00BF00D6AF1
:101948000A0E0C6E83EC0BF00A50300FDF6E10504D
:10195800D96EDA6A020ED92611C00AF00B6A0D6A2E
:101968000A0E0C6E83EC0BF00A50300FDF6E10502D
:10197800D96EDA6A030ED926DF6A1200036E0304F1
:10198800D8A4C9EF0CF0CBEF0CF0F5EF0CF0E1ECBC
:1019980008F0446E4428D8B4D4EF0CF0D6EF0CF01D
:1019A800E9EF0CF05250D8B4DCEF0CF0DEEF0CF09D
:1019B800E9EF0CF0526A820E026EDE0EE82EFED7B8
:1019C800022EFCD7445002EF0DF04428D8A4EFEFC4
:1019D8000CF0F1EF0CF001EF0DF0010E526E01EF7B
:1019E8000DF00350D8A4FBEF0CF0FDEF0CF001EF65
:1019F8000DF0E1EC08F002EF0DF0FF0E1200000E02
:101A0800026E010E18EC0FF0A20E046E2F0E056E7A
:101A1800840E066E39EC0DF0B40E046E2F0E056EB2
:101A2800C40E066E39EC0DF0506A4F6A50C003F0D0
:101A3800640EF8EC0EF04FC003F0650EF8EC0EF0F3
:101A4800330E086EBB0E076EE00EE82EFED7072E8B
:101A5800FCD7082EFAD7010E536E010E516E000EF8
:101A6800026E010E18EC0FF01200000E026E065006
:101A780018EC0FF056EF0DF0010E026E04C0F6FFE1
:101A880005C0F7FFF86A050EF76403D00800F550A3
:101A980005D0F6CFE9FFF7CFEAFFEF5018EC0FF0CB
:101AA800044A052A04C0F6FF05C0F7FFF86A050EC8
:101AB800F76403D00800F55005D0F6CFE9FFF7CF5B
:101AC800EAFFEF500009D8A46CEF0DF06EEF0DF0AF
:101AD80040EF0DF012004DC003F05050F8EC0EF03E
:101AE8004EC003F05028F8EC0EF04CC003F05050F4
:101AF800020FF8EC0EF04BC003F05050030FF8EC57
:101B08000EF04AC003F05050040FF8EC0EF0050E2A
:101B18005026310E506493EF0DF095EF0DF09DEFC8
:101B28000DF0506A010E4F6E4FC003F0650EF8ECD1
:101B38000EF050C003F0640EF8EC0EF01200B9EF8E
:101B48000DF003C0F6FF04C0F7FFF86A050EF7644E
:101B580003D00800F55005D0F6CFE9FFF7CFEAFF2C
:101B6800EF50B0EC0FF0034A042A03C0F6FF04C09C
:101B7800F7FFF86A050EF76403D00800F55005D0A2
:101B8800F6CFE9FFF7CFEAFFEF500009D8A4CFEF6F
:101B98000DF0D1EF0DF0A5EF0DF01200000E35ECB1
:101BA8000FF0066E010E35EC0FF0076E020E35ECE5
:101BB8000FF0086E06C005F00F0E051606380F0B5D
:101BC800070B0A0DF35005244A6E07C005F00F0EE7
:101BD800051607380F0B0F0B0A0DF35005244B6E33
:101BE80008C005F00F0E051608380F0B010B0A0D7B
:101BF800F35005244C6E1200B40EF66E1C0EF76EF0
:101C0800000EF86E00EE60F010EE58F00900F5CF07
:101C1800EEFFE550E150FAE1F60EF66E1F0EF76E94
:101C2800000EF86E00EE52F010EE07F00900F5CF46
:101C3800EEFFE550E150FAE100EE40F0120EEE6AD8
:101C4800E806FDE101900192000EF86E0001CAEF6E
:101C58000AF00600F2A433EF0EF035EF0EF058EF5D
:101C68000EF0090ED624D66E000ED720D76E010EC0
:101C78004026000E412242224322210E401809E14B
:101C88004E0E411842104310D8A44DEF0EF04FEFFE
:101C98000EF057EF0EF0000E406E000E416E000E73
:101CA800426E000E436EF29401921100DE2FE12F76
:101CB800E42FE72FEA2FED2FF02FF32FF62FDB2F4E
:101CC800DE2FE12FE42FE72FEA2FED2FF02FF32F50
:101CD800F62FDB2FD32FDF2FE22FE52FE82FEB2F67
:101CE800FC2FAB2F902F7C2F992F2054494D452046
:101CF800202020455620205350200030303A3030E4
:101D08003A303000070E4E6E6FEC0DF0000E026E8A
:101D1800010E18EC0FF0860E046E2F0E056E830E62
:101D2800066E39EC0DF0CE0E046E2F0E056EC40E45
:101D3800066E39EC0DF0010EC2EC0CF0076E0728A8
:101D4800D8B4A9EF0EF0ABEF0EF09FEF0EF0000E37
:101D5800026E010E18EC0FF01200000E35EC0FF0B9
:101D6800056E05508009036E000E6FEC0FF0020E31
:101D780035EC0FF0056E05504009036E020E6FEC4E
:101D88000FF0930E036E070E6FEC0FF0000E35EC9C
:101D98000FF0056E05507F0B036E000E6FEC0FF011
:101DA8001200086E08C004F0D8900436D8900436A3
:101DB800C250C30B0410C26EC282C2B2E6EF0EF06C
:101DC800E8EF0EF0E1EF0EF0C350C4CF04F0056A5F
:101DD80004C005F0046A0410066E0550076E06C0BC
:101DE80002F007C003F01200066EF7EC0FF0A00E29
:101DF800E5EC0FF00650E5EC0FF00350E5EC0FF0C2
:101E0800F3EC0FF00B0E056EB80E046E0406D8A0A6
:101E18000506042806E10528D8A415EF0FF017EFEA
:101E28000FF00AEF0FF01200036E02B01EEF0FF072
:101E380021EF0FF0828222EF0FF0829203C083FF1E
:101E4800828482949568828082928284829483BEFE
:101E580030EF0FF032EF0FF029EF0FF08290956A14
:101E68001200036EF7EC0FF0D00EE5EC0FF0035004
:101E7800E5EC0FF0EBEC0FF0D10EE5EC0FF0DFEC3A
:101E88000FF0046EF3EC0FF004501200036EF7EC41
:101E98000FF0A00EE5EC0FF00350E5EC0FF0EBECC3
:101EA8000FF0A10EE5EC0FF0DFEC0FF0046EF3EC91
:101EB8000FF004501200516ADAEC0BF0BBEC0FF093
:101EC800C5EC0FF07EEC0FF0A5EC0FF0B1EC0EF0C6
:101ED8008CEC0FF01200046EF7EC0FF0D00EE5EC6E
:101EE8000FF00450E5EC0FF00350E5EC0FF0F3ECC5
:101EF8000FF01200C08EC09AC088C096C090C082F1
:101F0800C094C292C19AC198C46AC36AC2801200BE
:101F1800949C948EAC8AAC98AC84AB8EAB88B89009
:101F2800B892B896810EAF6E1200116E000E026E56
:101F3800105018EC0FF0010E026E115018EC0FF053
:101F4800120094869488280EC66E310EC86EC79CFF
:101F5800C78E9E96A1961200026E9EA8B6EF0FF04D
:101F6800B8EF0FF0B1EF0FF002C0ADFF1200D58C43
:101F7800D59AD58ED586D76A060ED66EF294F28A91
:101F880012000F0EC16E1E0E936EF19E8150E00975
:101F9800816E12009EA6D3EF0FF0D5EF0FF0CEEFB3
:101FA8000FF09E9612009E0E046E056A800E066E55
:101FB80039EC0DF01200EFEC0FF0FFEC0FF0C95008
:101FC8001200026E02C0C9FFCEEC0FF01200C582EB
:101FD800CEEC0FF01200C586CEEC0FF01200C584CF
:101FE800CEEC0FF01200C580CEEC0FF0120001010C
:051FF800013030300053
:061FFE00C58AC58812002F
:102F1E0000534E202053504420204745415220203C
:102F2E0054494D450A0D004E4F204C4F47532054E7
:102F3E004F205052494E540A0D00534E20535020EC
:102F4E002047522054494D4500505245535320536B
:102F5E0057312F5357320054494D45205341564552
:102F6E004421004E4F204C4F475320544F00434CAA
:102F7E00454152204C4F4700434F4C4C4953494F0B
:102F8E004E00444F574E4C4F41440053455420542D
:102F9E00494D4500434C454152494E47005649451F
:102FAE0057204C4F4700544845204C4F475300483C
:102FBE00483A4D4D3A535300444953504C415900F1
:102FCE0048415050454E0020202020200031300036
:102FDE0030310030320030330030340030350030C4
:102FEE0036003037003038003039002D3E005200A8
:012FFE0000D2
:00000001FF
