:04000000FEEF17F008
:102E8C00000EF86E000183EF17F052EC17F0026E93
:102E9C00025067EC17F012009EAA57EF17F059EF8B
:102EAC0017F052EF17F09E9AAE50120073EC17F019
:102EBC00710E026E2F0E036E9DEC17F052EC17F094
:102ECC001200016E9EA86DEF17F06FEF17F068EF10
:102EDC0017F09E9801C0ADFF1200948E949CAC9C90
:102EEC00AC8AAC98AC96AC84AB8EAB9CAB88B896E9
:102EFC00810EAF6E9E989E9A12005CEC17F0D80E65
:102F0C00026E2F0E036E9DEC17F0AF0E026E2F0E9D
:102F1C00036E9DEC17F04BEC17F0F80E026E2F0EB3
:102F2C00036E9DEC17F091EF17F0FEEF17F0A9EF81
:102F3C0017F002C0F6FF03C0F7FF0800F55067EC6E
:102F4C0017F0024A032A02C0F6FF03C0F7FF08007D
:102F5C00F5500009D8A4B5EF17F0B7EF17F09FEFB5
:102F6C0017F0120000456D657274786520496E6625
:102F7C006F726D6174696F6E20546563686E6F6CEF
:102F8C006F676965732E20507265737320616E795B
:102F9C00206B657920746F20636F6E74696E756534
:102FAC000A0D00596F752073686F756C6420676526
:102FBC0074206261636B207768617465766572203A
:102FCC00796F7520747970653A0A0D0057656C63DA
:102FDC006F6D652E205468697320697320554152BA
:102FEC0054205465737420436F64652E0A0D0000E1
:042FFC0046EF17F095
:020000040020DA
:08000000FFFFFFFFFFFFFFFF00
:020000040030CA
:0E000000FF071F1FFF8285FF0FC00FE00F409C
:00000001FF
